{
  "contractName": "EXP5_AMAZON_BCT",
  "abi": [
    {
      "anonymous": false,
      "inputs": [
        {
          "indexed": false,
          "internalType": "uint256",
          "name": "productId",
          "type": "uint256"
        },
        {
          "indexed": false,
          "internalType": "address",
          "name": "buyer",
          "type": "address"
        }
      ],
      "name": "bought",
      "type": "event"
    },
    {
      "anonymous": false,
      "inputs": [
        {
          "indexed": false,
          "internalType": "uint256",
          "name": "productId",
          "type": "uint256"
        }
      ],
      "name": "delivered",
      "type": "event"
    },
    {
      "anonymous": false,
      "inputs": [
        {
          "indexed": false,
          "internalType": "string",
          "name": "title",
          "type": "string"
        },
        {
          "indexed": false,
          "internalType": "uint256",
          "name": "productId",
          "type": "uint256"
        },
        {
          "indexed": false,
          "internalType": "address",
          "name": "seller",
          "type": "address"
        }
      ],
      "name": "registered",
      "type": "event"
    },
    {
      "inputs": [
        {
          "internalType": "uint256",
          "name": "",
          "type": "uint256"
        }
      ],
      "name": "products",
      "outputs": [
        {
          "internalType": "string",
          "name": "title",
          "type": "string"
        },
        {
          "internalType": "string",
          "name": "desc",
          "type": "string"
        },
        {
          "internalType": "uint256",
          "name": "productId",
          "type": "uint256"
        },
        {
          "internalType": "uint256",
          "name": "price",
          "type": "uint256"
        },
        {
          "internalType": "address payable",
          "name": "buyer",
          "type": "address"
        },
        {
          "internalType": "address payable",
          "name": "seller",
          "type": "address"
        },
        {
          "internalType": "bool",
          "name": "delivered",
          "type": "bool"
        }
      ],
      "stateMutability": "view",
      "type": "function"
    },
    {
      "inputs": [
        {
          "internalType": "string",
          "name": "title",
          "type": "string"
        },
        {
          "internalType": "string",
          "name": "desc",
          "type": "string"
        },
        {
          "internalType": "uint256",
          "name": "price",
          "type": "uint256"
        }
      ],
      "name": "regsiterProduct",
      "outputs": [],
      "stateMutability": "nonpayable",
      "type": "function"
    },
    {
      "inputs": [
        {
          "internalType": "uint256",
          "name": "productId",
          "type": "uint256"
        }
      ],
      "name": "buyProduct",
      "outputs": [],
      "stateMutability": "payable",
      "type": "function"
    },
    {
      "inputs": [
        {
          "internalType": "uint256",
          "name": "productId",
          "type": "uint256"
        }
      ],
      "name": "delivery",
      "outputs": [],
      "stateMutability": "nonpayable",
      "type": "function"
    }
  ],
  "bytecode": "0x6080604052600160005534801561001557600080fd5b506113cc806100256000396000f3fe60806040526004361061003f5760003560e01c80631144fd72146100445780637acc0b201461006d5780638642269e146100b0578063b08c1fd9146100cc575b600080fd5b34801561005057600080fd5b5061006b60048036038101906100669190610972565b6100f5565b005b34801561007957600080fd5b50610094600480360381019061008f9190610972565b6102fd565b6040516100a79796959493929190610a9a565b60405180910390f35b6100ca60048036038101906100c59190610972565b6104ac565b005b3480156100d857600080fd5b506100f360048036038101906100ee9190610c4c565b610687565b005b3373ffffffffffffffffffffffffffffffffffffffff166001808361011a9190610d06565b8154811061012b5761012a610d3a565b5b906000526020600020906006020160040160009054906101000a900473ffffffffffffffffffffffffffffffffffffffff1673ffffffffffffffffffffffffffffffffffffffff16146101b3576040517f08c379a00000000000000000000000000000000000000000000000000000000081526004016101aa90610ddb565b60405180910390fd5b6001806001836101c39190610d06565b815481106101d4576101d3610d3a565b5b906000526020600020906006020160050160146101000a81548160ff0219169083151502179055506001808261020a9190610d06565b8154811061021b5761021a610d3a565b5b906000526020600020906006020160050160009054906101000a900473ffffffffffffffffffffffffffffffffffffffff1673ffffffffffffffffffffffffffffffffffffffff166108fc600180846102749190610d06565b8154811061028557610284610d3a565b5b9060005260206000209060060201600301549081150290604051600060405180830381858888f193505050501580156102c2573d6000803e3d6000fd5b507f4b5e4108167a669a2da8b1edeb1bf605987224cec90eeca47f7f235104539f21816040516102f29190610dfb565b60405180910390a150565b6001818154811061030d57600080fd5b906000526020600020906006020160009150905080600001805461033090610e45565b80601f016020809104026020016040519081016040528092919081815260200182805461035c90610e45565b80156103a95780601f1061037e576101008083540402835291602001916103a9565b820191906000526020600020905b81548152906001019060200180831161038c57829003601f168201915b5050505050908060010180546103be90610e45565b80601f01602080910402602001604051908101604052809291908181526020018280546103ea90610e45565b80156104375780601f1061040c57610100808354040283529160200191610437565b820191906000526020600020905b81548152906001019060200180831161041a57829003601f168201915b5050505050908060020154908060030154908060040160009054906101000a900473ffffffffffffffffffffffffffffffffffffffff16908060050160009054906101000a900473ffffffffffffffffffffffffffffffffffffffff16908060050160149054906101000a900460ff16905087565b34600180836104bb9190610d06565b815481106104cc576104cb610d3a565b5b9060005260206000209060060201600301541461051e576040517f08c379a000000000000000000000000000000000000000000000000000000000815260040161051590610ee8565b60405180910390fd5b3373ffffffffffffffffffffffffffffffffffffffff16600180836105439190610d06565b8154811061055457610553610d3a565b5b906000526020600020906006020160050160009054906101000a900473ffffffffffffffffffffffffffffffffffffffff1673ffffffffffffffffffffffffffffffffffffffff16036105dc576040517f08c379a00000000000000000000000000000000000000000000000000000000081526004016105d390610f7a565b60405180910390fd5b33600180836105eb9190610d06565b815481106105fc576105fb610d3a565b5b906000526020600020906006020160040160006101000a81548173ffffffffffffffffffffffffffffffffffffffff021916908373ffffffffffffffffffffffffffffffffffffffff1602179055507f2c9b5e9655a41ab13c5183c231239df125ecbd546a947624c913cfd43094906e813360405161067c929190610fbb565b60405180910390a150565b600081036106ca576040517f08c379a00000000000000000000000000000000000000000000000000000000081526004016106c190611030565b60405180910390fd5b6106d26108bd565b838160000181905250828160200181905250670de0b6b3a7640000826106f89190611050565b816060018181525050338160a0019073ffffffffffffffffffffffffffffffffffffffff16908173ffffffffffffffffffffffffffffffffffffffff168152505060005481604001818152505060018190806001815401808255809150506001900390600052602060002090600602016000909190919091506000820151816000019081610786919061123e565b50602082015181600101908161079c919061123e565b50604082015181600201556060820151816003015560808201518160040160006101000a81548173ffffffffffffffffffffffffffffffffffffffff021916908373ffffffffffffffffffffffffffffffffffffffff16021790555060a08201518160050160006101000a81548173ffffffffffffffffffffffffffffffffffffffff021916908373ffffffffffffffffffffffffffffffffffffffff16021790555060c08201518160050160146101000a81548160ff021916908315150217905550505060008081548092919061087390611310565b91905055507f2f2d57060110e728629fcdcfd43a3b0f571b51ca1899668910d777e935601e3e848260400151336040516108af93929190611358565b60405180910390a150505050565b6040518060e0016040528060608152602001606081526020016000815260200160008152602001600073ffffffffffffffffffffffffffffffffffffffff168152602001600073ffffffffffffffffffffffffffffffffffffffff1681526020016000151581525090565b6000604051905090565b600080fd5b600080fd5b6000819050919050565b61094f8161093c565b811461095a57600080fd5b50565b60008135905061096c81610946565b92915050565b60006020828403121561098857610987610932565b5b60006109968482850161095d565b91505092915050565b600081519050919050565b600082825260208201905092915050565b60005b838110156109d95780820151818401526020810190506109be565b60008484015250505050565b6000601f19601f8301169050919050565b6000610a018261099f565b610a0b81856109aa565b9350610a1b8185602086016109bb565b610a24816109e5565b840191505092915050565b610a388161093c565b82525050565b600073ffffffffffffffffffffffffffffffffffffffff82169050919050565b6000610a6982610a3e565b9050919050565b610a7981610a5e565b82525050565b60008115159050919050565b610a9481610a7f565b82525050565b600060e0820190508181036000830152610ab4818a6109f6565b90508181036020830152610ac881896109f6565b9050610ad76040830188610a2f565b610ae46060830187610a2f565b610af16080830186610a70565b610afe60a0830185610a70565b610b0b60c0830184610a8b565b98975050505050505050565b600080fd5b600080fd5b7f4e487b7100000000000000000000000000000000000000000000000000000000600052604160045260246000fd5b610b59826109e5565b810181811067ffffffffffffffff82111715610b7857610b77610b21565b5b80604052505050565b6000610b8b610928565b9050610b978282610b50565b919050565b600067ffffffffffffffff821115610bb757610bb6610b21565b5b610bc0826109e5565b9050602081019050919050565b82818337600083830152505050565b6000610bef610bea84610b9c565b610b81565b905082815260208101848484011115610c0b57610c0a610b1c565b5b610c16848285610bcd565b509392505050565b600082601f830112610c3357610c32610b17565b5b8135610c43848260208601610bdc565b91505092915050565b600080600060608486031215610c6557610c64610932565b5b600084013567ffffffffffffffff811115610c8357610c82610937565b5b610c8f86828701610c1e565b935050602084013567ffffffffffffffff811115610cb057610caf610937565b5b610cbc86828701610c1e565b9250506040610ccd8682870161095d565b9150509250925092565b7f4e487b7100000000000000000000000000000000000000000000000000000000600052601160045260246000fd5b6000610d118261093c565b9150610d1c8361093c565b9250828203905081811115610d3457610d33610cd7565b5b92915050565b7f4e487b7100000000000000000000000000000000000000000000000000000000600052603260045260246000fd5b7f4f6e6c79207468652070726f64756374277320707572636861736572206d617960008201527f20636f6e6669726d2064656c6976657279206f6620746865206974656d000000602082015250565b6000610dc5603d836109aa565b9150610dd082610d69565b604082019050919050565b60006020820190508181036000830152610df481610db8565b9050919050565b6000602082019050610e106000830184610a2f565b92915050565b7f4e487b7100000000000000000000000000000000000000000000000000000000600052602260045260246000fd5b60006002820490506001821680610e5d57607f821691505b602082108103610e7057610e6f610e16565b5b50919050565b7f506c6561736520706179207468652070726f6475637427732066756c6c20707260008201527f6963650000000000000000000000000000000000000000000000000000000000602082015250565b6000610ed26023836109aa565b9150610edd82610e76565b604082019050919050565b60006020820190508181036000830152610f0181610ec5565b9050919050565b7f412073656c6c65722063616e6e6f74207075726368617365207468656972206f60008201527f776e2070726f6475637400000000000000000000000000000000000000000000602082015250565b6000610f64602a836109aa565b9150610f6f82610f08565b604082019050919050565b60006020820190508181036000830152610f9381610f57565b9050919050565b6000610fa582610a3e565b9050919050565b610fb581610f9a565b82525050565b6000604082019050610fd06000830185610a2f565b610fdd6020830184610fac565b9392505050565b7f5072696365206d7573742062652067726561746572207468616e203000000000600082015250565b600061101a601c836109aa565b915061102582610fe4565b602082019050919050565b600060208201905081810360008301526110498161100d565b9050919050565b600061105b8261093c565b91506110668361093c565b92508282026110748161093c565b9150828204841483151761108b5761108a610cd7565b5b5092915050565b60008190508160005260206000209050919050565b60006020601f8301049050919050565b600082821b905092915050565b6000600883026110f47fffffffffffffffffffffffffffffffffffffffffffffffffffffffffffffffff826110b7565b6110fe86836110b7565b95508019841693508086168417925050509392505050565b6000819050919050565b600061113b6111366111318461093c565b611116565b61093c565b9050919050565b6000819050919050565b61115583611120565b61116961116182611142565b8484546110c4565b825550505050565b600090565b61117e611171565b61118981848461114c565b505050565b5b818110156111ad576111a2600082611176565b60018101905061118f565b5050565b601f8211156111f2576111c381611092565b6111cc846110a7565b810160208510156111db578190505b6111ef6111e7856110a7565b83018261118e565b50505b505050565b600082821c905092915050565b6000611215600019846008026111f7565b1980831691505092915050565b600061122e8383611204565b9150826002028217905092915050565b6112478261099f565b67ffffffffffffffff8111156112605761125f610b21565b5b61126a8254610e45565b6112758282856111b1565b600060209050601f8311600181146112a85760008415611296578287015190505b6112a08582611222565b865550611308565b601f1984166112b686611092565b60005b828110156112de578489015182556001820191506020850194506020810190506112b9565b868310156112fb57848901516112f7601f891682611204565b8355505b6001600288020188555050505b505050505050565b600061131b8261093c565b91507fffffffffffffffffffffffffffffffffffffffffffffffffffffffffffffffff820361134d5761134c610cd7565b5b600182019050919050565b6000606082019050818103600083015261137281866109f6565b90506113816020830185610a2f565b61138e6040830184610fac565b94935050505056fea2646970667358221220deb47e9148307de4bac744b6d39a3d1d2bcfe743968afc0d3f805c27089b1dd564736f6c63430008110033",
  "immutableReferences": {},
  "source": "pragma solidity >=0.7.0 <0.9.0;\r\n\r\ncontract EXP5_AMAZON_BCT {\r\n    struct Product {\r\n        string title;\r\n        string desc;\r\n        uint productId;\r\n        uint price;\r\n        address payable buyer;\r\n        address payable seller;\r\n        bool delivered;\r\n    }\r\n    uint counter = 1;\r\n    Product[] public products;\r\n\r\n    event registered(string title, uint productId, address seller);\r\n    event bought(uint productId, address buyer);\r\n    event delivered(uint productId);\r\n\r\n    function regsiterProduct(string memory title, string memory desc, uint price) public {\r\n        require(price!=0, \"Price must be greater than 0\");\r\n        Product memory tempProduct;\r\n        tempProduct.title=title;\r\n        tempProduct.desc=desc;\r\n        tempProduct.price=price*(1 ether);\r\n        tempProduct.seller=payable(msg.sender);\r\n        tempProduct.productId=counter;\r\n        products.push(tempProduct);\r\n        counter++;\r\n        emit registered(title, tempProduct.productId, msg.sender);\r\n    }\r\n\r\n    function buyProduct(uint productId) payable public {\r\n        require(products[productId-1].price==msg.value, \"Please pay the product's full price\");\r\n        require(products[productId-1].seller!=msg.sender, \"A seller cannot purchase their own product\");\r\n        products[productId-1].buyer=payable(msg.sender);\r\n        emit bought(productId, msg.sender);\r\n    }\r\n\r\n    function delivery(uint productId) public {\r\n        require(products[productId-1].buyer==msg.sender, \"Only the product's purchaser may confirm delivery of the item\");\r\n        products[productId-1].delivered=true;\r\n        products[productId-1].seller.transfer(products[productId-1].price);\r\n        emit delivered(productId);\r\n    }\r\n}",
  "sourcePath": "D:\\KJSCE\\Sem 7\\BCT Lab\\EXP5_BCT\\contracts\\EXP5_AMAZON_BCT.sol",
  "compiler": {
    "name": "solc",
    "version": "0.8.17+commit.8df45f5f.Emscripten.clang"
  },
  "schemaVersion": "3.4.10",
  "updatedAt": "2022-11-25T07:59:18.724Z",
  "devdoc": {
    "kind": "dev",
    "methods": {},
    "version": 1
  },
  "userdoc": {
    "kind": "user",
    "methods": {},
    "version": 1
  }
}