{
  "contractName": "EXP5_AMAZON_BCT",
  "abi": [
    {
      "anonymous": false,
      "inputs": [
        {
          "indexed": false,
          "internalType": "uint256",
          "name": "productId",
          "type": "uint256"
        },
        {
          "indexed": false,
          "internalType": "address",
          "name": "buyer",
          "type": "address"
        }
      ],
      "name": "bought",
      "type": "event"
    },
    {
      "anonymous": false,
      "inputs": [
        {
          "indexed": false,
          "internalType": "uint256",
          "name": "productId",
          "type": "uint256"
        }
      ],
      "name": "delivered",
      "type": "event"
    },
    {
      "anonymous": false,
      "inputs": [
        {
          "indexed": false,
          "internalType": "string",
          "name": "title",
          "type": "string"
        },
        {
          "indexed": false,
          "internalType": "uint256",
          "name": "productId",
          "type": "uint256"
        },
        {
          "indexed": false,
          "internalType": "address",
          "name": "seller",
          "type": "address"
        }
      ],
      "name": "registered",
      "type": "event"
    },
    {
      "inputs": [
        {
          "internalType": "uint256",
          "name": "",
          "type": "uint256"
        }
      ],
      "name": "products",
      "outputs": [
        {
          "internalType": "string",
          "name": "title",
          "type": "string"
        },
        {
          "internalType": "string",
          "name": "desc",
          "type": "string"
        },
        {
          "internalType": "uint256",
          "name": "productId",
          "type": "uint256"
        },
        {
          "internalType": "uint256",
          "name": "price",
          "type": "uint256"
        },
        {
          "internalType": "address payable",
          "name": "buyer",
          "type": "address"
        },
        {
          "internalType": "address payable",
          "name": "seller",
          "type": "address"
        },
        {
          "internalType": "bool",
          "name": "delivered",
          "type": "bool"
        }
      ],
      "stateMutability": "view",
      "type": "function",
      "constant": true
    },
    {
      "inputs": [
        {
          "internalType": "string",
          "name": "title",
          "type": "string"
        },
        {
          "internalType": "string",
          "name": "desc",
          "type": "string"
        },
        {
          "internalType": "uint256",
          "name": "price",
          "type": "uint256"
        }
      ],
      "name": "regsiterProduct",
      "outputs": [],
      "stateMutability": "nonpayable",
      "type": "function"
    },
    {
      "inputs": [
        {
          "internalType": "uint256",
          "name": "productId",
          "type": "uint256"
        }
      ],
      "name": "buyProduct",
      "outputs": [],
      "stateMutability": "payable",
      "type": "function",
      "payable": true
    },
    {
      "inputs": [
        {
          "internalType": "uint256",
          "name": "productId",
          "type": "uint256"
        }
      ],
      "name": "delivery",
      "outputs": [],
      "stateMutability": "nonpayable",
      "type": "function"
    }
  ],
  "bytecode": "0x60806040526000805534801561001457600080fd5b5061135d806100246000396000f3fe60806040526004361061003f5760003560e01c80631144fd72146100445780637acc0b201461006d5780638642269e146100b0578063b08c1fd9146100cc575b600080fd5b34801561005057600080fd5b5061006b60048036038101906100669190610937565b6100f5565b005b34801561007957600080fd5b50610094600480360381019061008f9190610937565b6102e3565b6040516100a79796959493929190610a5f565b60405180910390f35b6100ca60048036038101906100c59190610937565b610492565b005b3480156100d857600080fd5b506100f360048036038101906100ee9190610c11565b61065f565b005b3373ffffffffffffffffffffffffffffffffffffffff16600182815481106101205761011f610c9c565b5b906000526020600020906006020160040160009054906101000a900473ffffffffffffffffffffffffffffffffffffffff1673ffffffffffffffffffffffffffffffffffffffff16146101a8576040517f08c379a000000000000000000000000000000000000000000000000000000000815260040161019f90610d3d565b60405180910390fd5b60018082815481106101bd576101bc610c9c565b5b906000526020600020906006020160050160146101000a81548160ff021916908315150217905550600181815481106101f9576101f8610c9c565b5b906000526020600020906006020160050160009054906101000a900473ffffffffffffffffffffffffffffffffffffffff1673ffffffffffffffffffffffffffffffffffffffff166108fc670de0b6b3a76400006001848154811061026157610260610c9c565b5b90600052602060002090600602016003015461027d9190610d8c565b9081150290604051600060405180830381858888f193505050501580156102a8573d6000803e3d6000fd5b507f4b5e4108167a669a2da8b1edeb1bf605987224cec90eeca47f7f235104539f21816040516102d89190610dce565b60405180910390a150565b600181815481106102f357600080fd5b906000526020600020906006020160009150905080600001805461031690610e18565b80601f016020809104026020016040519081016040528092919081815260200182805461034290610e18565b801561038f5780601f106103645761010080835404028352916020019161038f565b820191906000526020600020905b81548152906001019060200180831161037257829003601f168201915b5050505050908060010180546103a490610e18565b80601f01602080910402602001604051908101604052809291908181526020018280546103d090610e18565b801561041d5780601f106103f25761010080835404028352916020019161041d565b820191906000526020600020905b81548152906001019060200180831161040057829003601f168201915b5050505050908060020154908060030154908060040160009054906101000a900473ffffffffffffffffffffffffffffffffffffffff16908060050160009054906101000a900473ffffffffffffffffffffffffffffffffffffffff16908060050160149054906101000a900460ff16905087565b34670de0b6b3a7640000600183815481106104b0576104af610c9c565b5b9060005260206000209060060201600301546104cc9190610d8c565b1461050c576040517f08c379a000000000000000000000000000000000000000000000000000000000815260040161050390610ebb565b60405180910390fd5b3373ffffffffffffffffffffffffffffffffffffffff166001828154811061053757610536610c9c565b5b906000526020600020906006020160050160009054906101000a900473ffffffffffffffffffffffffffffffffffffffff1673ffffffffffffffffffffffffffffffffffffffff16036105bf576040517f08c379a00000000000000000000000000000000000000000000000000000000081526004016105b690610f4d565b60405180910390fd5b33600182815481106105d4576105d3610c9c565b5b906000526020600020906006020160040160006101000a81548173ffffffffffffffffffffffffffffffffffffffff021916908373ffffffffffffffffffffffffffffffffffffffff1602179055507f2c9b5e9655a41ab13c5183c231239df125ecbd546a947624c913cfd43094906e8133604051610654929190610f8e565b60405180910390a150565b600081036106a2576040517f08c379a000000000000000000000000000000000000000000000000000000000815260040161069990611003565b60405180910390fd5b6106aa610882565b83816000018190525082816020018190525081816060018181525050338160a0019073ffffffffffffffffffffffffffffffffffffffff16908173ffffffffffffffffffffffffffffffffffffffff16815250506000548160400181815250506001819080600181540180825580915050600190039060005260206000209060060201600090919091909150600082015181600001908161074b91906111cf565b50602082015181600101908161076191906111cf565b50604082015181600201556060820151816003015560808201518160040160006101000a81548173ffffffffffffffffffffffffffffffffffffffff021916908373ffffffffffffffffffffffffffffffffffffffff16021790555060a08201518160050160006101000a81548173ffffffffffffffffffffffffffffffffffffffff021916908373ffffffffffffffffffffffffffffffffffffffff16021790555060c08201518160050160146101000a81548160ff0219169083151502179055505050600080815480929190610838906112a1565b91905055507f2f2d57060110e728629fcdcfd43a3b0f571b51ca1899668910d777e935601e3e84826040015133604051610874939291906112e9565b60405180910390a150505050565b6040518060e0016040528060608152602001606081526020016000815260200160008152602001600073ffffffffffffffffffffffffffffffffffffffff168152602001600073ffffffffffffffffffffffffffffffffffffffff1681526020016000151581525090565b6000604051905090565b600080fd5b600080fd5b6000819050919050565b61091481610901565b811461091f57600080fd5b50565b6000813590506109318161090b565b92915050565b60006020828403121561094d5761094c6108f7565b5b600061095b84828501610922565b91505092915050565b600081519050919050565b600082825260208201905092915050565b60005b8381101561099e578082015181840152602081019050610983565b60008484015250505050565b6000601f19601f8301169050919050565b60006109c682610964565b6109d0818561096f565b93506109e0818560208601610980565b6109e9816109aa565b840191505092915050565b6109fd81610901565b82525050565b600073ffffffffffffffffffffffffffffffffffffffff82169050919050565b6000610a2e82610a03565b9050919050565b610a3e81610a23565b82525050565b60008115159050919050565b610a5981610a44565b82525050565b600060e0820190508181036000830152610a79818a6109bb565b90508181036020830152610a8d81896109bb565b9050610a9c60408301886109f4565b610aa960608301876109f4565b610ab66080830186610a35565b610ac360a0830185610a35565b610ad060c0830184610a50565b98975050505050505050565b600080fd5b600080fd5b7f4e487b7100000000000000000000000000000000000000000000000000000000600052604160045260246000fd5b610b1e826109aa565b810181811067ffffffffffffffff82111715610b3d57610b3c610ae6565b5b80604052505050565b6000610b506108ed565b9050610b5c8282610b15565b919050565b600067ffffffffffffffff821115610b7c57610b7b610ae6565b5b610b85826109aa565b9050602081019050919050565b82818337600083830152505050565b6000610bb4610baf84610b61565b610b46565b905082815260208101848484011115610bd057610bcf610ae1565b5b610bdb848285610b92565b509392505050565b600082601f830112610bf857610bf7610adc565b5b8135610c08848260208601610ba1565b91505092915050565b600080600060608486031215610c2a57610c296108f7565b5b600084013567ffffffffffffffff811115610c4857610c476108fc565b5b610c5486828701610be3565b935050602084013567ffffffffffffffff811115610c7557610c746108fc565b5b610c8186828701610be3565b9250506040610c9286828701610922565b9150509250925092565b7f4e487b7100000000000000000000000000000000000000000000000000000000600052603260045260246000fd5b7f4f6e6c79207468652070726f64756374277320707572636861736572206d617960008201527f20636f6e6669726d2064656c6976657279206f6620746865206974656d000000602082015250565b6000610d27603d8361096f565b9150610d3282610ccb565b604082019050919050565b60006020820190508181036000830152610d5681610d1a565b9050919050565b7f4e487b7100000000000000000000000000000000000000000000000000000000600052601160045260246000fd5b6000610d9782610901565b9150610da283610901565b9250828202610db081610901565b91508282048414831517610dc757610dc6610d5d565b5b5092915050565b6000602082019050610de360008301846109f4565b92915050565b7f4e487b7100000000000000000000000000000000000000000000000000000000600052602260045260246000fd5b60006002820490506001821680610e3057607f821691505b602082108103610e4357610e42610de9565b5b50919050565b7f506c6561736520706179207468652070726f6475637427732066756c6c20707260008201527f6963650000000000000000000000000000000000000000000000000000000000602082015250565b6000610ea560238361096f565b9150610eb082610e49565b604082019050919050565b60006020820190508181036000830152610ed481610e98565b9050919050565b7f412073656c6c65722063616e6e6f74207075726368617365207468656972206f60008201527f776e2070726f6475637400000000000000000000000000000000000000000000602082015250565b6000610f37602a8361096f565b9150610f4282610edb565b604082019050919050565b60006020820190508181036000830152610f6681610f2a565b9050919050565b6000610f7882610a03565b9050919050565b610f8881610f6d565b82525050565b6000604082019050610fa360008301856109f4565b610fb06020830184610f7f565b9392505050565b7f5072696365206d7573742062652067726561746572207468616e203000000000600082015250565b6000610fed601c8361096f565b9150610ff882610fb7565b602082019050919050565b6000602082019050818103600083015261101c81610fe0565b9050919050565b60008190508160005260206000209050919050565b60006020601f8301049050919050565b600082821b905092915050565b6000600883026110857fffffffffffffffffffffffffffffffffffffffffffffffffffffffffffffffff82611048565b61108f8683611048565b95508019841693508086168417925050509392505050565b6000819050919050565b60006110cc6110c76110c284610901565b6110a7565b610901565b9050919050565b6000819050919050565b6110e6836110b1565b6110fa6110f2826110d3565b848454611055565b825550505050565b600090565b61110f611102565b61111a8184846110dd565b505050565b5b8181101561113e57611133600082611107565b600181019050611120565b5050565b601f8211156111835761115481611023565b61115d84611038565b8101602085101561116c578190505b61118061117885611038565b83018261111f565b50505b505050565b600082821c905092915050565b60006111a660001984600802611188565b1980831691505092915050565b60006111bf8383611195565b9150826002028217905092915050565b6111d882610964565b67ffffffffffffffff8111156111f1576111f0610ae6565b5b6111fb8254610e18565b611206828285611142565b600060209050601f8311600181146112395760008415611227578287015190505b61123185826111b3565b865550611299565b601f19841661124786611023565b60005b8281101561126f5784890151825560018201915060208501945060208101905061124a565b8683101561128c5784890151611288601f891682611195565b8355505b6001600288020188555050505b505050505050565b60006112ac82610901565b91507fffffffffffffffffffffffffffffffffffffffffffffffffffffffffffffffff82036112de576112dd610d5d565b5b600182019050919050565b6000606082019050818103600083015261130381866109bb565b905061131260208301856109f4565b61131f6040830184610f7f565b94935050505056fea2646970667358221220dd71f16e98c8bb0624d5ea6f69d9357bca849e8a22d79960353a556e55a507fa64736f6c63430008110033",
  "immutableReferences": {},
  "source": "// SPDX-License-Identifier: GPL-3.0\r\n\r\npragma solidity >=0.7.0 <0.9.0;\r\n\r\n\r\ncontract EXP5_AMAZON_BCT {\r\n    struct Product {\r\n        string title;\r\n        string desc;\r\n        uint productId;\r\n        uint price;\r\n        address payable buyer;\r\n        address payable seller;\r\n        bool delivered;\r\n    }\r\n    uint counter = 0;\r\n    Product[] public products;\r\n\r\n    event registered(string title, uint productId, address seller);\r\n    event bought(uint productId, address buyer);\r\n    event delivered(uint productId);\r\n\r\n    function regsiterProduct(string memory title, string memory desc, uint price) public {\r\n        require(price!=0, \"Price must be greater than 0\");\r\n        Product memory tempProduct;\r\n        tempProduct.title=title;\r\n        tempProduct.desc=desc;\r\n        tempProduct.price=price;\r\n        tempProduct.seller=payable(msg.sender);\r\n        tempProduct.productId=counter;\r\n        products.push(tempProduct);\r\n        counter++;\r\n        emit registered(title, tempProduct.productId, msg.sender);\r\n    }\r\n\r\n    function buyProduct(uint productId) payable public {\r\n        require((products[productId].price)*(1 ether)==msg.value, \"Please pay the product's full price\");\r\n        require(products[productId].seller!=msg.sender, \"A seller cannot purchase their own product\");\r\n        products[productId].buyer=payable(msg.sender);\r\n        emit bought(productId, msg.sender);\r\n    }\r\n\r\n    function delivery(uint productId) public {\r\n        require(products[productId].buyer==msg.sender, \"Only the product's purchaser may confirm delivery of the item\");\r\n        products[productId].delivered=true;\r\n        products[productId].seller.transfer((products[productId].price)*(1 ether));\r\n        emit delivered(productId);\r\n    }\r\n}",
  "sourcePath": "D:\\KJSCE\\Sem 7\\BCT Lab\\EXP5_BCT\\contracts\\EXP5_AMAZON_BCT.sol",
  "compiler": {
    "name": "solc",
    "version": "0.8.17+commit.8df45f5f.Emscripten.clang"
  },
  "schemaVersion": "3.4.10",
  "updatedAt": "2022-11-25T11:53:07.064Z",
  "networkType": "ethereum",
  "devdoc": {
    "kind": "dev",
    "methods": {},
    "version": 1
  },
  "userdoc": {
    "kind": "user",
    "methods": {},
    "version": 1
  }
}